S00D000053746167652E7372656323
S1130000AAC00000C5C00000C3C00000C1C00000F9
S1130010BFC00000BDC00000BBC00000B9C00000EC
S1130020B7C00000B5C00000B3C00000B1C00000FC
S1130030AFC00000ADC00000ABC00000A9C000000C
S1130040EDC00000A5C00000C2C00000A1C00000B7
S11300509FC000009DC000009BC0000099C000002C
S113006097C0000095C0000093C0000091C000003C
S11300708FC000008DC000008BC0000089C000004C
S113008087C0000085C0000083C000008E039A036F
S1130090A303B403D103E003F90322049102910200
S11300A02E0447049102910291029102910291025D
S11300B091029102910291029102910291029102A4
S11300C09102910291029102910291029102910294
S11300D09102910291029102910291029102910284
S11300E09102910291029102910291029102910274
S11300F09102910291029102910291029102910264
S11301009102910291029102910291029102910253
S11301109102910291029102910291029102910243
S11301209102910291029102910291029102910233
S11301309102910291029102910291029102910223
S11301409102910291029102910291029102910213
S1130150910291026E0411241FBECFEFD0E1DEBFE5
S1130160CDBF11E0A0E0B1E0EAEDFFE000E00BBF9D
S113017002C007900D92A036B107D9F721E0A0E69E
S1130180B1E001C01D92A03FB207E1F79BD123C7A4
S113019037CF83B7876083BF87B7816087BF0895F0
S11301A08FB582608FBD8EB588618EBD8FB5886036
S11301B08FBD8EB582608EBD8FE39CE997BD86BDF1
S11301C088E893E1909379008093780008951F92D2
S11301D00F920FB60F9211240BB60F922F933F93E9
S11301E04F935F936F937F938F939F93AF93BF933B
S11301F0EF93FF93ACD3FF91EF91BF91AF919F9198
S11302008F917F916F915F914F913F912F910F90BB
S11302100BBE0F900FBE0F901F9018951F920F9258
S11302200FB60F9211248F939F9380919A0190910E
S11302309B01019690939B0180939A018091940174
S113024090919501019690939501809394019F91CB
S11302508F910F900FBE0F901F901895E6E1F1E07B
S113026080919C0190919D019183808390B181E064
S1130270982791709283138290B1969598279170E4
S11302809483158290B1969596959827917096834C
S1130290178290B196959695969598279170908728
S11302A0118690B192959F708927817082871386F9
S11302B088B398B392708170892B21E030E081304B
S11302C011F020E030E0309323012093220188B321
S11302D098B398708470892B21E030E0843011F059
S11302E020E030E03093250120932401E6E1F1E0A1
S11302F08091A2019091A301918B808B8091A001A8
S11303009091A101938B828B80919E0190919F018A
S1130310958B848B08956F927F928F929F92AF9268
S1130320BF92CF92DF92EF92FF920F931F93CF93DE
S1130330DF930F2EF6E1EF2EF1E0FF2EF02D01E01A
S113034010E0C0E0D0E00F2EF2E38F2EF1E09F2EFC
S1130350F02D0F2EF2E6CF2EF1E0DF2EF02D570117
S11303600F2EFCE26F2EF1E07F2EF02D06C02196B9
S11303700F5F1F4F82E0E80EF11C209799F4F501FE
S113038081818F9380818F937F926F92DF92CF923E
S113039047D3C601C6D20F900F900F900F900F90C5
S11303A00F90E5CF9E01215031092930310598F491
S11303B0F70181818F9380818F939F928F92DF9237
S11303C0CF922ED3C601ADD20F900F900F900F9005
S11303D00F900F901CC0CA30D105C9F4E6E1F1E0DA
S11303E085898F9384898F9386E391E09F938F937C
S11303F082E691E09F938F9313D382E691E091D2AA
S11304000F900F900F900F900F900F9004C00B302F
S113041011050CF4ACCF89E391E083D2DF91CF9145
S11304201F910F91FF90EF90DF90CF90BF90AF900E
S11304309F908F907F906F900895809197018F93F4
S1130440809196018F938BE391E09F938F9382E643
S113045091E09F938F93E4D282E691E062D25BDFD6
S1130460809196019091970101960F900F900F90B3
S11304700F900F900F90843691052CF49093970170
S11304808093960108951092970110929601089511
S1130490FC017096DB015096469620E030E06191B5
S11304A071914D915D916417750711F02F5F3F4F66
S11304B0E817F907A1F781E090E0232B11F480E01D
S11304C090E0089587B38F6087BB87B3806E87BB46
S11304D017D25FDE65DE78946894CC24C1F8D12C01
S11304E0EE24E394F12C0CE211E00F2EF8E7AF2E8A
S11304F0B12CF02D0F2EF8E84F2EF3E15F2EF02DE6
S11305000F2EF8ED8F2EFEE09F2EF02D0F2EF8EB20
S11305106F2EFBE07F2EF02D0F2EFAE02F2E312CC4
S1130520F02D0DD2882309F4A8C00CD264E371E045
S11305303FD29093ED018093EC01009741F120911B
S11305409801309199012115310529F49093EB011B
S11305508093EA0107C02130310521F49093EF0123
S11305608093EE0164E371E080E090E021D2909307
S1130570ED018093EC0120919801309199012F5F56
S11305803F4F30939901209398010097C1F6109240
S113059099011092980144E050E062E471E0809186
S11305A0EE019091EF0107D2892B69F4F092A70133
S11305B0E092A6018091EA019091EB01B2D184E32B
S11305C091E0AFD1A8DE44E050E067E471E08091AF
S11305D0EE019091EF01EFD1892B69F41092A701FC
S11305E01092A6018091EA019091EB019AD184E3E3
S11305F091E097D190DE44E050E06CE471E08091AA
S1130600EE019091EF01D7D1892B49F48091EA0151
S11306109091EB0186D184E391E083D17CDE44E0C8
S113062050E061E571E08091EE019091EF01C3D15A
S1130630892B39F41BBA18BA15BA12BA13B80C9428
S11306400000C091EE01D091EF0144E050E066E576
S113065071E0CE01B0D1892B21F4F092A501E09292
S1130660A40144E050E06BE571E0CE01A4D1892BF4
S113067021F4D092A501C092A401F0DD60E071E004
S113068086E191E005DF019781F480910C0190915E
S11306900D01019609F42FC1D0DE2DC181919191F4
S11306A08D939D93E017F107C9F7049B0DC003993F
S11306B00BC088B398B398708470892B29F4F09296
S11306C0A101E092A00104C01092A1011092A00126
S11306D0009B15C0019B13C0029B11C088B398B343
S11306E092708170892B59F480919E0190919F01A1
S11306F0892B29F4F092A301E092A20104C0109284
S1130700A3011092A201E0919C01F0919D01E536B4
S1130710F10508F006CFEA5BFF4F41C18091A601C5
S11307209091A701019709F0FCCEF0929D01E0920F
S11307309C01F7CE009BF5CE0199F3CED0929D019A
S1130740C0929C01EECE029B02C0C09AEACE0299EE
S1130750E8CEC09880919C0190919D010196909360
S11307609D0180939C01DDCE8091A4019091A5010F
S1130770009709F4D6CE8130910539F484E090E0F5
S113078090939D0180939C01CCCE029709F0C9CE31
S113079010929B0110929A0130929D0120929C012B
S11307A0C0CE039BBECE049BBCCE10929B01109284
S11307B09A0185E090E090939D0180939C01B1CED5
S11307C0F50171826082F0929F01E0929E01809116
S11307D09A0190919B01803491050CF4A2CE8091F2
S11307E09C0190919D01019690939D0180939C01A1
S11307F098CE029907C0C09AC29A10929B01109297
S11308009A018FCE029B8DCE80919A0190919B018B
S1130810803491050CF485CEC098F5015182408254
S113082010929F0110929E01F092A301E092A20106
S113083080919C0190919D01019690939D018093DC
S11308409C016FCE03996DCE03996BCEC29884E65A
S113085090E090939D0180939C0163CEF501918279
S11308608082F0929F01E0929E0180919A01909182
S11308709B01803491050CF454CE80919C0190919D
S11308809D01019690939D0180939C014ACE02990B
S113089006C0C09A10929B0110929A0142CE029B0C
S11308A040CE80919A0190919B01803491050CF483
S11308B038CEC098F5015182408210929F01109267
S11308C09E011092A5011092A401F092A301E0925E
S11308D0A20110929D0110929C0123CE1092A501B9
S11308E01092A401F092A101E092A00110929D0146
S11308F010929C0116CEE2E2F1E0ACE0B1E0CECE83
S1130900109290008FEC89B9599AE5E9F0E0808162
S11309108660808388E98AB908955D9BFECF8CB98F
S11309200895CF93DF93EC018881882329F02196E1
S1130930F4DF89918111FCCFDF91CF9108958091EB
S1130940A90108951092A9018AEA91E00895CF932C
S1130950DF931F92CDB7DEB78CB1898389818A304A
S113096019F089818D3061F4E091A801F0E0E65539
S1130970FE4F10821092A80181E08093A9010BC060
S11309808091A801E82FF0E09981E655FE4F90830D
S11309908F5F8093A8010F90DF91CF910895EE0FA0
S11309A0FF1F0024001C0BBE0790F691E02D099454
S11309B040E651E00EC0FB01DC014150504030F0F4
S11309C08D910190801919F40020B9F7881B990BB7
S11309D00895FA01A191B081009719F41097E1F0FC
S11309E0CD01DC01CD010D90002011F4C00113C034
S11309F0FB012191222319F02015D9F7F3CFFB0134
S1130A002191201519F41E92119606C02223C1F7D4
S1130A100D900020A1F7D001FA01A193B0830895AD
S1130A200F931F93CF93DF93CDB7DEB72E970FB6F7
S1130A30F894DEBF0FBECDBF0D891E8986E08C837E
S1130A401A8309838FEF9FE79E838D83AE01475EF0
S1130A505F4F6F89788DCE01019610D0EF81F885B4
S1130A60E00FF11F10822E960FB6F894DEBF0FBE72
S1130A70CDBFDF91CF911F910F9108952F923F9297
S1130A804F925F926F927F928F929F92AF92BF929A
S1130A90CF92DF92EF92FF920F931F93CF93DF9346
S1130AA0CDB7DEB72B970FB6F894DEBF0FBECDBF20
S1130AB06C017B018A01FC0117821682838181FF0C
S1130AC0BFC1CE0101963C01F6019381F70193FD6C
S1130AD0859193FF81917F01882309F4ADC185320B
S1130AE039F493FD859193FF81917F01853221F43F
S1130AF0B60190E0D6D1E8CF912C212C312CFFE126
S1130B00F315D8F08B3279F038F4803279F08332EF
S1130B10A1F4232D20611DC08D3261F0803369F46E
S1130B20232D216016C0832D8260382EE32DE460CE
S1130B303E2E2AC0F32DF8601DC037FC2DC020EDD9
S1130B40280F2A3040F08E32B9F436FC75C1232DBB
S1130B502064322E19C036FE06C08AE0989E200D0D
S1130B601124922E11C0EAE02E9E200D1124222E73
S1130B70F32DF0623F2E08C08C3621F4832D80685B
S1130B80382E02C0883641F4F70193FD859193FF16
S1130B9081917F018111B3CF982F9F7D955493301C
S1130BA028F40C5F1F4F9FE399830DC0833631F007
S1130BB0833771F0833509F055C020C0F801808176
S1130BC089830E5F1F4F88248394912C530112C094
S1130BD02801F2E04F0E511CF801A080B18036FECE
S1130BE003C0692D70E002C06FEF7FEFC5014ED1E5
S1130BF04C018201F32DFF773F2E15C0280122E01E
S1130C00420E511CF801A080B18036FE03C0692D4C
S1130C1070E002C06FEF7FEFC5012DD14C01F32DC1
S1130C20F0683F2E820133FC19C0822D90E08816B3
S1130C309906A0F4B60180E290E033D12A94F5CF6E
S1130C40F50137FC859137FE81915F01B60190E093
S1130C5028D121102A9421E0821A91088114910448
S1130C6079F7E1C0843611F0893639F5F80137FE99
S1130C7007C060817181828193810C5F1F4F08C01E
S1130C8060817181072E000C880B990B0E5F1F4F3A
S1130C90F32DFF763F2E97FF09C0909580957095B0
S1130CA061957F4F8F4F9F4FF0683F2E2AE030E0D1
S1130CB0A30133D1882E861844C0853731F4232DFF
S1130CC02F7EB22E2AE030E025C0932D997FB92ED5
S1130CD08F36C1F018F4883579F0AEC0803719F03A
S1130CE0883721F0A9C0E92FE061BE2EB4FE0DC003
S1130CF0FB2DF460BF2E09C034FE0AC0292F2660E4
S1130D00B22E06C028E030E005C020E130E002C089
S1130D1020E132E0F801B7FE07C060817181828171
S1130D2093810C5F1F4F06C06081718180E090E069
S1130D300E5F1F4FA301F1D0882E8618FB2DFF777D
S1130D403F2E36FE0DC0232D2E7FA22E891458F47B
S1130D5034FE0BC032FC09C0832D8E7EA82E05C044
S1130D60B82CA32C03C0B82C01C0B92CA4FE0FC00E
S1130D70FE01E80DF11D8081803321F49A2D997EC6
S1130D80A92E09C0A2FE06C0B394B39404C08A2D50
S1130D90867809F0B394A3FC10C0A0FE06C0B21478
S1130DA080F4280C922C9B180DC0B21458F4B60190
S1130DB080E290E076D0B394F8CFB21418F42B18F4
S1130DC002C0982C212CA4FE0FC0B60180E390E051
S1130DD068D0A2FE16C0A1FC03C088E790E002C060
S1130DE088E590E0B6010CC08A2D867851F0A1FE0A
S1130DF002C08BE201C080E2A7FC8DE2B60190E064
S1130E0050D0891430F4B60180E390E04AD09A942B
S1130E10F8CF8A94F301E80DF11D8081B60190E0CA
S1130E2040D08110F6CF222009F44ECEB60180E2E4
S1130E3090E037D02A94F7CFF6018681978102C0DB
S1130E408FEF9FEF2B960FB6F894DEBF0FBECDBF8A
S1130E50DF91CF911F910F91FF90EF90DF90CF9092
S1130E60BF90AF909F908F907F906F905F904F90C6
S1130E703F902F900895FC0105906150704001103F
S1130E80D8F7809590958E0F9F1F0895FC016150AF
S1130E90704001900110D8F7809590958E0F9F1F98
S1130EA008950F931F93CF93DF93FB01238121FDBB
S1130EB003C08FEF9FEF2CC022FF16C046815781DD
S1130EC0248135814217530744F4A081B1819D01E7
S1130ED02F5F3F4F318320838C93268137812F5F8F
S1130EE03F4F3783268314C08B01EC01FB01008440
S1130EF0F185E02D0995892BE1F6D80116968D919F
S1130F009C911797019617969C938E931697CE01F2
S1130F10DF91CF911F910F910895FA01AA272830EC
S1130F2051F1203181F1E8946F936E7F6E5F7F4FB2
S1130F308F4F9F4FAF4FB1E03ED0B4E03CD0670F2E
S1130F40781F891F9A1FA11D680F791F8A1F911D81
S1130F50A11D6A0F711D811D911DA11D20D009F4D1
S1130F6068943F912AE0269F11243019305D319313
S1130F70DEF6CF010895462F4770405D4193B3E0FC
S1130F800FD0C9F7F6CF462F4F70405D4A3318F0A3
S1130F90495D31FD4052419302D0A9F7EACFB4E054
S1130FA0A6959795879577956795BA95C9F700970C
S1130FB06105710508959B01AC010A2E06945795AD
S1130FC0479537952795BA95C9F7620F731F841F04
S10D0FD0951FA01D0895F894FFCFAB
S1130FDAFFFFFFFFFFFFFFFFFFFFFFFFFFFFFFFF13
S1130FEAFFFFFFFFFFFFFFFFFFFFFFFFFFFFFFFF03
S1130FFAFFFFFFFFFFFFFFFFFFFFFFFF2530336403
S113100A2C0025642C002564000D0065253032640B
S113101A2C006175746F006D616E75007374617470
S113102A00727365740070646F6B0070646E6F0095
S9030000FC
