:100000004FC100006BC1000069C1000067C1000062
:1000100065C1000063C1000061C100005FC1000054
:100020005DC100005BC1000059C1000057C1000064
:1000300055C1000053C1000051C100004FC1000074
:100040000C94490A4BC100004AC1000047C100009E
:1000500045C1000043C1000041C100003FC1000094
:100060003DC100003BC1000039C1000037C10000A4
:1000700035C1000033C1000031C100002FC10000B4
:100080002DC100002BC1000029C10000ED04230593
:1000900036058E05EB0587088708870887088708D7
:1000A00087088708870887088708870887088708D8
:1000B00087088708870887088708870887088708C8
:1000C00087088708870887088708870887088708B8
:1000D00087088708870887088708870887088708A8
:1000E0008708870887088708870887088708870898
:1000F0008708870887088708870887088708870888
:100100008708870887088708870887088708870877
:100110008708870887088708870887088708870867
:100120008708870887088708870887088708870857
:100130008708870887088708870887088708870847
:100140008708870887088708870887088708870837
:10015000870887081D062D064006530661067406AB
:100160008006950687088708B806C406EA06870849
:100170008708870887088708870887088708870807
:1001800087088708870887088708870887088708F7
:100190004907870887088708870887088708870826
:1001A00087088708870887088708870887088708D7
:1001B00087088708870887088708870887088708C7
:1001C00087088708870887088708870887088708B7
:1001D00087088708870887088708870887088708A7
:1001E0008708870887088708870887088708870897
:1001F0008708870887088708870887088708870887
:100200008708870887088708870887088708870876
:1002100087088708870887088708870855076507BC
:10022000780789079507A607B207C70787088708D1
:10023000E807F4071C0887088708870887088708E5
:10024000870887087B08CB05D405CB05D405D405E2
:10025000D405B505C205D405D405CB05C205C20534
:10026000AA059E0527073007270730073007300704
:1002700011071E073007300727071E071E0706074E
:10028000FA065908620859086208620862084308B9
:1002900050086208620859085008500838082C08AD
:1002A00011241FBECFEFD0E1DEBFCDBF11E0A0E033
:1002B000B1E0E2E2FCE100E00BBF02C007900D926A
:1002C000A438B107D9F722E0A4E8B1E001C01D923B
:1002D000AA33B207E1F790D20C940F0E91CE1F9281
:1002E0000F920FB60F9211240BB60F922F933F93DC
:1002F0004F935F936F937F938F939F93AF93BF932E
:10030000EF93FF930E94930AFF91EF91BF91AF91FA
:100310009F918F917F916F915F914F913F912F911D
:100320000F900BBE0F900FBE0F901F9018958FB5BA
:1003300082608FBD8EB588618EBD8FB5806A8FBD9E
:100340008EB582608EBD8FE39CE997BD86BD089512
:1003500086B1876086B93E9A379A089587B38066DA
:1003600087BB85B385BB84B38FEF84BB82B382BB6D
:1003700081B381BB83B183B982B182B9E2E6F0E097
:1003800080818083E1E6F0E080818083E5E6F0E033
:1003900080818083E4E6F0E080818360808308953B
:1003A00088EE93E09BBD8ABD99BD88BD089588EE17
:1003B00093E09BBD8ABD8CEA9DE099BD88BD089500
:1003C000CF93DF9300D000D0CDB7DEB721E030E08F
:1003D0003A83298329813A8128173907FCF441E0BF
:1003E00050E05C834B832B813C81283532405CF4A8
:1003F0002B813C812F5F3F4F3C832B832B813C81A2
:1004000028353240ACF329813A812F5F3F4F3A8340
:10041000298329813A81281739071CF30F900F90FF
:100420000F900F90DF91CF910895019711F4A89A42
:100430000895A8980895019711F4A99A0895A99884
:100440000895019711F4AA9A0895AA98089501971A
:1004500011F4AB9A0895AB980895019739F481E0AF
:1004600090E0E3DF80E090E0E6CF089580E090E068
:10047000DCDF81E090E0DFCF0895019739F481E07F
:1004800090E0DFDF80E090E0E2CF089580E090E050
:10049000D8DF81E090E0DBCF089580E090E0D1DF0D
:1004A00080E090E0D4DF80E090E0BFDF80E090E08B
:1004B000C2CF0895EBE3F1E080919B0180838091AE
:1004C0009601818380919501828380919401838339
:1004D000809193018483809192018583E3EEF1E022
:1004E000A1E4B1E028EE31E081918D93E217F307AA
:1004F000D9F708956F927F928F929F92AF92BF9299
:10050000CF92DF92EF92FF920F931F93CF93DF93DF
:10051000CBE3D1E066246394712C06E511E00F2E45
:10052000F0E5CF2EF1E0DF2EF02D0F2EFCE4EF2EC4
:10053000F1E0FF2EF02D5E010F2EF6E48F2EF1E09C
:100540009F2EF02D04C08FEF681A780A2196E1E003
:100550006E167104B1F4F50180811F928F939F9202
:100560008F928BEE91E09F938F930E94340B8BEED2
:1005700091E0CBD70F900F900F900F900F900F90AE
:10058000E2CFC3010297059790F488811F928F9361
:10059000FF92EF928BEE91E09F938F930E94340B2A
:1005A0000F900F900F900F900F900F9027C0C301E6
:1005B0000797049790F488811F928F93DF92CF92D0
:1005C0008BEE91E09F938F930E94340B0F900F90CE
:1005D0000F900F900F900F9011C088811F928F93F2
:1005E0001F930F938BEE91E09F938F930E94340B98
:1005F0000F900F900F900F900F900F908BEE91E057
:1006000084D7FBE06F1671040CF49DCF82E891E073
:100610007CD7DF91CF911F910F91FF90EF90DF90EA
:10062000CF90BF90AF909F908F907F906F900895E4
:1006300080918A0190918B019F938F938BE591E03C
:100640009F938F938BEE91E09F938F930E94340B37
:100650008BEE91E05AD74EDF80918A0190918B0109
:10066000019690938B0180938A0180918A019091E9
:100670008B010F900F900F900F900F900F9084367A
:10068000910524F010928B0110928A01089597B180
:10069000907F97B997B1892B87B9369A3699FECF53
:1006A00084B195B10895CF93DF9362E272E082E561
:1006B0007DD680931D028130C1F4C2E2D2E022E3F4
:1006C00032E0FE0180E28193E217F307E1F782E274
:1006D00092E09ED680931D02E3EEF1E027E232E045
:1006E00089918193C217D307D9F7DF91CF910895EC
:1006F000CF92DF92EF92FF920F931F93CF93DF93EE
:100700008C01141615060CF040C0FB0180816801B5
:10071000D801A40FB51FE12CF12CEB01C40FD51F9C
:1007200015C09191921304C0FFEFEF1AFF0A03C0A6
:10073000CE17DF07B1F7CA16DB0641F4F801808156
:10074000EB01640F751FC12CD12C15C0F60121914E
:100750006F01281749F3FB013196EACF919192136B
:1007600004C0FFEFCF1ADF0A03C0EA17FB07B1F797
:10077000C617D70731F02991281799F3F801319658
:10078000F4CFEC14FD0451F402C0E12CF12C81E013
:1007900090E04E155F0521F080E002C080E090E01F
:1007A000DF91CF911F910F91FF90EF90DF90CF904D
:1007B0000895FC013181FB012181321311C0FC013C
:1007C0003296DB011296AC01455F5F4F21919D91FE
:1007D000291309C0E417F507C9F720E030E005C088
:1007E00021E030E002C021E030E081E090E0232B06
:1007F00011F480E090E00895E4E3F2E08EE091E00F
:100800009383828380E091E09183808369D661D66F
:1008100035D699D4A3DD8BDD9BDD789401E010E023
:10082000C6E4D1E00F2EF3EDAF2EB12CF02D0F2E3C
:10083000F8EEEF2EF3E0FF2EF02D0F2EFDEC2F2E15
:10084000312CF02D0F2EFBEC4F2E512CF02D0F2EB6
:10085000FCE8CF2EFAE0DF2EF02D0F2EF0E76F2E02
:10086000712CF02D0F2EFFE68F2E912CF02D83D6BC
:10087000882309F494C082D66EE471E08DD69093FB
:10088000210280932002009741F120918C01309148
:100890008D012115310529F49093E9018093E80138
:1008A00007C02130310521F4909333028093320246
:1008B0006EE471E080E090E06FD690932102809327
:1008C000200220918C0130918D012F5F3F4F30939A
:1008D0008D0120938C010097C1F610928D0110922A
:1008E0008C0145E050E062E671E080913202909127
:1008F000330255D6892B89F48091E8019091E90162
:1009000004D68EE491E001D6F5DD10939A010093B0
:100910009901109298011092970145E050E067E626
:1009200071E0809132029091330239D6892B89F49B
:100930008091E8019091E901E8D58EE491E0E5D558
:10094000D9DD109398010093970110929A011092AB
:10095000990145E050E06CE671E08091320290919F
:1009600033021DD6892B49F48091E8019091E90169
:10097000CCD58EE491E0C9D5BDDD45E050E061E71E
:1009800071E0809132029091330209D6892B39F4BB
:100990001BBA18BA15BA12BA13B80C94000083DE49
:1009A00089DD60E371E08BE391E003DF892B51F097
:1009B0003FDEECE3F1E0A1E3B1E081918D93EC1730
:1009C000FD07D9F7E0919B01F0919C01ED3DF10508
:1009D00008F09DC3EA5BFF4FD6C5809199019091C5
:1009E0009A0181309105B1F480919701909198011D
:1009F000892B09F03CCFD4DC1092A00110929F010A
:100A000080919B0190919C01019690939C01809311
:100A10009B012DCF892B09F02ACF809197019091CE
:100A20009801019709F023CFC2DC1092A001109227
:100A30009F0180919B0190919C01019690939C0154
:100A400080939B0114CF80919F019091A0018038E9
:100A500091050CF40CCF10928F0110928E0182E060
:100A600090E090939C0180939B0101CF809199012C
:100A700090919A0181309105B9F4809197019091FC
:100A80009801892B51F545E050E06BE271E083EE6F
:100A900091E02EDE90939101809390010197B9F53A
:100AA00081E0809393011FC0892BB9F48091970155
:100AB00090919801019789F445E050E066E271E079
:100AC00083EE91E015DE9093910180939001019760
:100AD000F1F482E08093930106C08091900190919F
:100AE00091010197A1F4D9DCC8016ADC109296014A
:100AF00010929E0110929D0110928F0110928E0112
:100B000084E090E090939C0180939B01B0CE83E0C1
:100B100090E090939C0180939B01A9CE89B3E82F2C
:100B2000EF70E093EA018E2F90E0FC013197EF30F7
:100B3000F10508F039C0ED5DFE4F25C580E090E07D
:100B40008CDCC8019ADC8BE190E03ADCA6DCC801C1
:100B500037DC2AC0C80181DCC8018FDC8BE190E062
:100B60002FDC9BDCC8012CDC1FC080E090E075DC32
:100B700080E090E082DC8BE190E022DC8EDCC8013A
:100B80001FDC12C0C80179DC8BE190E019DC85DC48
:100B9000C80116DC09C080E090E05FDC8BE190E0EA
:100BA0000FDC7BDCC8010CDC80918E0190918F0101
:100BB000892B39F481E08093960110938F01009383
:100BC0008E0180919B0190919C01019790939C01D3
:100BD00080939B014CCE80919D0190919E01803825
:100BE00091050CF444CE10929E0110929D018091CB
:100BF000990190919A018130910571F4809197014A
:100C000090919801892B09F032CE84E690E0909380
:100C10009C0180939B012BCE892B09F028CE8091DB
:100C2000970190919801019709F021CE88EC90E00E
:100C300090939C0180939B011ACE80E028DD9093D5
:100C400087018093860180919B0190919C01019680
:100C500090939C0180939B010ACEDBBCCABC81E0CF
:100C6000809395011092A00110929F0180919B01A9
:100C700090919C01019690939C0180939B01F7CDEC
:100C800080919F019091A001803891050CF4EFCDE7
:100C90001092A00110929F0187E690E090939C0132
:100CA00080939B01E4CD8CEA9DE099BD88BD809145
:100CB0009B0190919C01019690939C0180939B01D4
:100CC000D6CD80919F019091A001803891050CF4C0
:100CD000CECD1092A00110929F0189E690E09093F2
:100CE0009C0180939B01C3CDFBBCEABC80919B011E
:100CF00090919C01019690939C0180939B01B7CDAC
:100D000080919F019091A001803891050CF4AFCDA6
:100D10001092A00110929F01109295018BE690E035
:100D200090939C0180939B01A2CD80E0B0DC9093D6
:100D30008901809388012091860130918701A90162
:100D4000481B590B4233510554F081E080939401C4
:100D50008EE690E090939C0180939B0188CD109249
:100D6000940182E890E090939C0180939B017FCD59
:100D700081E08093920110928F0110928E019092E7
:100D80009C0180929B0173CD45E050E06CE171E0E5
:100D900083EE91E0ADDC90939101809390010197F7
:100DA000A1F47BDBC8010CDB10929601109292013A
:100DB00010928F0110928E0110929A011092990157
:100DC00010929C0110929B0152CD70929C016092F6
:100DD0009B014DCD89B3E82FEF70E093EA018E2F90
:100DE00090E0FC013197EF30F10508F039C0EE5C7E
:100DF000FE4FC9C380E090E030DBC8013EDB82E3F8
:100E000090E0DEDA4ADBC801DBDA2AC0C80125DB64
:100E1000C80133DB82E390E0D3DA3FDBC801D0DAEC
:100E20001FC080E090E019DB80E090E026DB82E3E9
:100E300090E0C6DA32DBC801C3DA12C0C8011DDB9C
:100E400082E390E0BDDA29DBC801BADA09C080E0AC
:100E500090E003DB82E390E0B3DA1FDBC801B0DA95
:100E600080918E0190918F01892B49F481E08093CC
:100E700096011092930110938F0100938E0180913F
:100E80009B0190919C01019790939C0180939B0101
:100E9000EECC82E08093920110929A011092990117
:100EA00010929C0110929B01E2CC80E0F0DB9093C9
:100EB00087018093860180919B0190919C0101960E
:100EC00090939C0180939B01D2CCDBBCCABC82E096
:100ED000809395011092A00110929F0180919B0137
:100EE00090919C01019690939C0180939B01BFCCB3
:100EF00080919F019091A001803891050CF4B7CCAE
:100F00001092A00110929F0150929C0140929B016F
:100F1000AECCF9BCE8BC80919B0190919C010196FC
:100F200090939C0180939B01A2CC80919F01909112
:100F3000A001803891050CF49ACC1092A001109277
:100F40009F0130929C0120929B0191CCFBBCEABC9A
:100F500080919B0190919C01019690939C018093BC
:100F60009B0185CC80919F019091A00180389105D3
:100F70000CF47DCC1092A00110929F01109295016B
:100F80008FEC90E090939C0180939B0170CC80E06B
:100F90007EDB9093890180938801209186013091B6
:100FA0008701821B930B4E974CF01092940142EDF7
:100FB00050E050939C0140939B0159CC81E0809379
:100FC00094018CED90E090939C0180939B014FCC19
:100FD00081E08093920110928F0110928E01B09265
:100FE0009C01A0929B0143CC45E050E061E271E09E
:100FF00083EE91E07DDB90939101809390010197C6
:10100000A1F44BDAC801DCD910929601109292013A
:1010100010928F0110928E011092980110929701F8
:1010200010929C0110929B0122CC44ED50E0509311
:101030009C0140939B011BCC89B3E82FEF70E09398
:10104000EA018E2F90E0FC013197EF30F10508F0B6
:1010500039C0EF5BFE4F97C280E090E0FED9C80137
:101060000CDA82E390E0ACD918DAC801A9D92AC019
:10107000C801F3D9C80101DA82E390E0A1D90DDA01
:10108000C8019ED91FC080E090E0E7D980E090E0E1
:10109000F4D982E390E094D900DAC80191D912C062
:1010A000C801EBD982E390E08BD9F7D9C80188D980
:1010B00009C080E090E0D1D982E390E081D9EDD9F8
:1010C000C8017ED980918E0190918F01892B49F4BE
:1010D00081E0809396011092930110938F01009309
:1010E0008E0180919B0190919C01019790939C01AE
:1010F00080939B01BCCB82E0809392011092980177
:101100001092970110929C0110929B01B0CB86E740
:1011100091E07AD2ACCBCF93C62FC098880F8E7750
:10112000B3D18C2FB1D1C09ACF910895C098880FB8
:101130008E778068A9D180E0A7D1C09A08956FE02A
:1011400081E0E9CF0895FBDF6DE88AE2E4DF6EE33A
:101150008BE2E1DF6EE18CE2DEDF60E08DE2DBDF7F
:1011600060E485E1D8DF6DE381E1D5DF84E1DEDF96
:10117000982F937021F4682F636084E1CCCF089599
:101180003F924F925F926F927F928F929F92AF9217
:10119000BF92CF92DF92EF92FF920F931F93CF9364
:1011A000DF93982EF62EE72E442E822E332E5801F2
:1011B0008CE0981609F4BAC0EEE09E1203C010E16C
:1011C00002E102C010E000E084E0B0DF682F6F773A
:1011D00084E0A1DF8AE0AADF682F60688AE09BDFF5
:1011E00060E081E098DF512C612C712C4114510496
:1011F0006104710419F414C010E307E7CF2DDE2D4C
:10120000C12CD12C7601699189E085DFFFEFCF1ADF
:10121000DF0AEF0AFF0AC414D504E604F70498F3C2
:10122000692D81E078DF8CE0981206C08DE07EDFCA
:10123000682F60688DE06FDF84E078DFF82EC0E013
:10124000D0E0116009C084E071DFF82E2196CF3C18
:10125000E7E0DE0709F483C0812F8F21A1F387C067
:101260000170F02211F0C2E001C0C1E0FCE09F1269
:101270008AC08AE05BDF482E8CE058DF282F277079
:10128000A9F0842D90E00197880F991F880F991F6E
:10129000880F991F820F911D092E000CAA0BBB0B02
:1012A000F50180839183A283B38311C0842D90E0E4
:1012B000880F991F880F991F880F991F092E000CFE
:1012C000AA0BBB0BF50180839183A283B3834420D7
:1012D00071F0842D813108F080E1482E512C612C71
:1012E000712C411451046104710429F44CC0412C47
:1012F000512C32014394082D132DC12CD12C760191
:1013000089E014DFF80181938F01FFEFCF1ADF0A24
:10131000EF0AFF0AC414D504E604F70488F333C0C7
:101320006CE081E0F8DE10E307E780CF84E0FEDECA
:10133000682F6F7784E0EFDE8AE0F8DE682F606860
:101340008AE0E9DE60E081E0E6DE512C612C712C60
:10135000411451046104710409F04ECFE1CF8DE0D6
:10136000E5DE682F6F778DE0D6DEC3E00CC08DE040
:10137000DDDE682F6F778DE0CEDE86E0D7DE8B7105
:1013800009F46ECFC3E08C2FDF91CF911F910F91A5
:10139000FF90EF90DF90CF90BF90AF909F908F9095
:1013A0007F906F905F904F903F900895EF92FF92E3
:1013B0000F931F93CF93DF9300D000D0CDB7DEB74C
:1013C000182F7B0167E08DE0A6DEF70110838E0108
:1013D0000F5F1F4F970141E0B7018CE0D1DE8130F4
:1013E00059F449815A816B817C81403151056105F5
:1013F000710519F083E001C083E00F900F900F900A
:101400000F90DF91CF911F910F91FF90EF90089572
:10141000EF92FF920F931F93CF93DF9300D000D0F2
:10142000CDB7DEB77C0160E08DE075DE83E9F701C2
:10143000808380E281838E010F5F1F4F970142E01E
:10144000B7018CE09DDE813071F4F701A7014C5F9C
:101450005F4F90E0219192274E175F07D9F7F70170
:101460002481921383E00F900F900F900F90DF91E3
:10147000CF911F910F91FF90EF90089587E087BB68
:10148000BB9881E58DB908958FB9779BFECF8FB159
:1014900008951F920F920FB60F9211248F939F936E
:1014A00080919F019091A00101969093A00180935B
:1014B0009F0180919D0190919E01019690939E01C4
:1014C00080939D019F918F910F900FBE0F901F9061
:1014D000189583B7876083BF87B7816087BF0895FA
:1014E000109290008FEC89B9599AE5E9F0E080817B
:1014F0008660808388E98AB908955D9BFECF8CB9A8
:1015000008955F9BFECF8CB10895CF93DF93EC01DC
:101510008881882329F02196F0DF89918111FCCF01
:10152000DF91CF910895CF93DF931F92CDB7DEB7B0
:101530008CB1898389818A3019F089818D3061F479
:10154000E091A101F0E0ED55FE4F10821092A10153
:1015500081E08093A2010BC08091A101E82FF0E00F
:101560009981ED55FE4F90838F5F8093A1010F907D
:10157000DF91CF9108958091A20108951092A20168
:1015800083EA91E00895EE0FFF1F0024001C0BBEBC
:101590000790F691E02D099444E851E00EC0FB015C
:1015A000DC014150504030F08D910190801919F4C8
:1015B0000020B9F7881B990B0895FA01A191B08119
:1015C000009719F41097E1F0CD01DC01CD010D90E9
:1015D000002011F4C00113C0FB012191222319F056
:1015E0002015D9F7F3CFFB012191201519F41E9294
:1015F000119606C02223C1F70D900020A1F7D0015B
:10160000FA01A193B08308950F931F93CF93DF93B3
:10161000E0913602F0913702238121FF1BC08C013B
:10162000D0E0C0E0F80181918F01609136027091A5
:101630003702DB011896ED91FC911997882331F060
:101640000995892B79F3DFEFCFEFECCF8AE009958D
:10165000892B19F08FEF9FEF02C08D2F9C2FDF9108
:10166000CF911F910F9108950F931F93CF93DF9305
:10167000CDB7DEB72E970FB6F894DEBF0FBECDBF45
:101680000D891E8986E08C831A8309838FEF9FE77B
:101690009E838D83AE01475E5F4F6F89788DCE014B
:1016A000019610D0EF81F885E00FF11F10822E9681
:1016B0000FB6F894DEBF0FBECDBFDF91CF911F9163
:1016C0000F9108952F923F924F925F926F927F9267
:1016D0008F929F92AF92BF92CF92DF92EF92FF9242
:1016E0000F931F93CF93DF93CDB7DEB72B970FB632
:1016F000F894DEBF0FBECDBF6C017B018A01FC01F7
:1017000017821682838181FFBFC1CE0101963C0101
:10171000F6019381F70193FD859193FF81917F01FC
:10172000882309F4ADC1853239F493FD859193FF87
:1017300081917F01853221F4B60190E0D6D1E8CFC6
:10174000912C212C312CFFE1F315D8F08B3279F05C
:1017500038F4803279F08332A1F4232D20611DC04A
:101760008D3261F0803369F4232D216016C0832D02
:101770008260382EE32DE4603E2E2AC0F32DF860FF
:101780001DC037FC2DC020ED280F2A3040F08E32CE
:10179000B9F436FC75C1232D2064322E19C036FEF3
:1017A00006C08AE0989E200D1124922E11C0EAE016
:1017B0002E9E200D1124222EF32DF0623F2E08C004
:1017C0008C3621F4832D8068382E02C0883641F48F
:1017D000F70193FD859193FF81917F018111B3CF33
:1017E000982F9F7D9554933028F40C5F1F4F9FE3F3
:1017F00099830DC0833631F0833771F0833509F05A
:1018000055C020C0F801808189830E5F1F4F882456
:101810008394912C530112C02801F2E04F0E511C09
:10182000F801A080B18036FE03C0692D70E002C0CF
:101830006FEF7FEFC5014ED14C018201F32DFF7791
:101840003F2E15C0280122E0420E511CF801A08055
:10185000B18036FE03C0692D70E002C06FEF7FEFEC
:10186000C5012DD14C01F32DF0683F2E820133FCD0
:1018700019C0822D90E088169906A0F4B60180E286
:1018800090E033D12A94F5CFF50137FC859137FEEE
:1018900081915F01B60190E028D121102A9421E0C6
:1018A000821A91088114910479F7E1C0843611F00D
:1018B000893639F5F80137FE07C060817181828170
:1018C00093810C5F1F4F08C060817181072E000C4F
:1018D000880B990B0E5F1F4FF32DFF763F2E97FF5E
:1018E00009C090958095709561957F4F8F4F9F4F60
:1018F000F0683F2E2AE030E0A30133D1882E86180D
:1019000044C0853731F4232D2F7EB22E2AE030E0FB
:1019100025C0932D997FB92E8F36C1F018F48835E4
:1019200079F0AEC0803719F0883721F0A9C0E92FCF
:10193000E061BE2EB4FE0DC0FB2DF460BF2E09C0C9
:1019400034FE0AC0292F2660B22E06C028E030E0FF
:1019500005C020E130E002C020E132E0F801B7FE2E
:1019600007C060817181828193810C5F1F4F06C027
:101970006081718180E090E00E5F1F4FA301F1D084
:10198000882E8618FB2DFF773F2E36FE0DC0232DA7
:101990002E7FA22E891458F434FE0BC032FC09C0ED
:1019A000832D8E7EA82E05C0B82CA32C03C0B82C86
:1019B00001C0B92CA4FE0FC0FE01E80DF11D80810D
:1019C000803321F49A2D997EA92E09C0A2FE06C06B
:1019D000B394B39404C08A2D867809F0B394A3FC21
:1019E00010C0A0FE06C0B21480F4280C922C9B18E4
:1019F0000DC0B21458F4B60180E290E076D0B394F2
:101A0000F8CFB21418F42B1802C0982C212CA4FE85
:101A10000FC0B60180E390E068D0A2FE16C0A1FC22
:101A200003C088E790E002C088E590E0B6010CC0F2
:101A30008A2D867851F0A1FE02C08BE201C080E2BF
:101A4000A7FC8DE2B60190E050D0891430F4B601C5
:101A500080E390E04AD09A94F8CF8A94F301E80D9D
:101A6000F11D8081B60190E040D08110F6CF222098
:101A700009F44ECEB60180E290E037D02A94F7CF39
:101A8000F6018681978102C08FEF9FEF2B960FB6EC
:101A9000F894DEBF0FBECDBFDF91CF911F910F91A4
:101AA000FF90EF90DF90CF90BF90AF909F908F907E
:101AB0007F906F905F904F903F902F900895FC0122
:101AC0000590615070400110D8F7809590958E0F69
:101AD0009F1F0895FC016150704001900110D8F7DC
:101AE000809590958E0F9F1F08950F931F93CF930E
:101AF000DF93FB01238121FD03C08FEF9FEF2CC0FB
:101B000022FF16C046815781248135814217530731
:101B100044F4A081B1819D012F5F3F4F3183208329
:101B20008C93268137812F5F3F4F3783268314C0E4
:101B30008B01EC01FB010084F185E02D0995892BD7
:101B4000E1F6D80116968D919C91179701961796FC
:101B50009C938E931697CE01DF91CF911F910F9199
:101B60000895FA01AA27283051F1203181F1E89433
:101B70006F936E7F6E5F7F4F8F4F9F4FAF4FB1E080
:101B80003ED0B4E03CD0670F781F891F9A1FA11D7B
:101B9000680F791F8A1F911DA11D6A0F711D811D7C
:101BA000911DA11D20D009F468943F912AE0269F41
:101BB00011243019305D3193DEF6CF010895462FA0
:101BC0004770405D4193B3E00FD0C9F7F6CF462F81
:101BD0004F70405D4A3318F0495D31FD40524193EA
:101BE00002D0A9F7EACFB4E0A695979587957795A7
:101BF0006795BA95C9F700976105710508959B012E
:101C0000AC010A2E06945795479537952795BA95B6
:101C1000C9F7620F731F841F951FA01D0895F894C4
:021C2000FFCFF4
:101C220000000001000000000000810A0000000026
:101C32000002000000007D0A00000000B6C0082576
:101C42005B45A5E52B2EA2E30530742099E1267EA3
:101C5200FFFFFFFFFFFFFFFFFFFFFFFFFFFFFFFF92
:101C6200FFFFFFFFFFFF253033642C0025642C00AB
:101C7200253032782C0025303278006525303264E8
:101C82002C007069636B0064726F7000737461740E
:101C920000727365740063617365206465666175C3
:041CA2006C740D0051
:00000001FF
