S00D000053746167652E7372656323
S113000045C0000060C000005EC000005CC000008D
S11300105AC0000058C0000056C0000054C0000080
S113002052C0000050C000004EC000004CC0000090
S11300304AC0000048C0000046C0000044C00000A0
S11300408CC0000040C0000061C000003CC0000043
S11300503AC0000038C0000036C0000034C00000C0
S113006032C0000030C000002EC000002CC00000D0
S11300702AC0000028C0000026C0000024C00000E0
S113008022C0000020C000001EC0000011241FBEBA
S1130090CFEFD0E1DEBFCDBF11E0A0E0B1E0E2E9F7
S11300A0FDE000E00BBF02C007900D92AC34B10735
S11300B0D9F721E0ACE4B1E001C01D92A83DB2073C
S11300C0E1F794D164C69CCF83B7876083BF87B7B9
S11300D0816087BF08958FB582608FBD8EB58861BA
S11300E08EBD8FB5886A8FBD8EB582608EBD8FE35D
S11300F09CE997BD86BD28EE33E03BBD2ABD99BD82
S113010088BD909379008093780008951F920F9290
S11301100FB60F9211240BB60F922F933F934F9368
S11301205F936F937F938F939F93AF93BF93EF935B
S1130130FF93F2D2FF91EF91BF91AF919F918F9175
S11301407F916F915F914F913F912F910F900BBED3
S11301500F900FBE0F901F9018951F920F920FB61D
S11301600F9211248F939F93809184019091850124
S1130170019690938501809384019F918F910F90B4
S11301800FBE0F901F901895E6E1F1E08091860173
S1130190909187019183808391B181E09827917038
S11301A09283138291B196959827917094831582C6
S11301B091B196959695982791709683178291B1EF
S11301C0969596959695982791709087118691B1FA
S11301D092959F70892781708287138688B398B31C
S11301E092708170892B21E030E0813011F020E0A1
S11301F030E0309323012093220188B398B39870A0
S11302008470892B21E030E0843011F020E030E06C
S11302103093250120932401E6E1F1E080918C01E3
S113022090918D01918B808B80918A0190918B01AB
S1130230938B828B8091880190918901958B848B1B
S11302400895CF92DF92EF92FF920F931F93CF9373
S1130250DF9308E111E0C1E0D0E00F2EFCE2CF2EE5
S1130260F1E0DF2EF02D0F2EFEE4EF2EF1E0FF2E55
S1130270F02DCA30D1059CF4F80181818F938081DF
S11302808F93DF92CF92FF92EF92A6D2C7012ED224
S11302900F900F900F900F900F900F901CC0CA30CA
S11302A0D105C9F4E6E1F1E085898F9384898F93C0
S11302B080E391E09F938F938EE491E09F938F93DB
S11302C08BD28EE491E012D20F900F900F900F908A
S11302D00F900F9006C021960E5F1F4FCB30D105B3
S11302E041F683E391E002D2DF91CF911F910F9108
S11302F0FF90EF90DF90CF900895809181018F93CC
S1130300809180018F9386E391E09F938F938EE495
S113031091E09F938F9360D28EE491E0E7D191DFD7
S1130320809180019091810101960F900F900F9020
S11303300F900F900F90843691052CF490938101C7
S11303408093800108951092810110928001089594
S1130350FC013C96DB011C96469660E070E04191FE
S113036051912D913D914217530711F06F5F7F4FCB
S1130370E817F907A1F781E090E0672B11F480E01A
S113038090E008950B990FC00C9B10C0C29911C046
S113039081E090E02091880130918901213031057C
S11303A051F480E0089580E090E0089580E090E0CA
S11303B0089580E090E00895089B0FC0089910C04C
S11303C0C09911C081E090E02091880130918901A9
S11303D02130310551F480E0089580E090E00895E3
S11303E080E090E0089580E090E0089587B38F6006
S11303F087BB87B3806E87BB68D166DE6CDE78947A
S1130400EE24E394F12C0CE211E00F2EFAE06F2EAF
S1130410712CF02D0F2EF8EE8F2EF3E09F2EF02D81
S11304200F2EF4E6AF2EB12CF02D0F2EF8EBCF2EBD
S1130430FBE0DF2EF02D68D1882309F477C067D163
S11304406EE271E091D19093D5018093D40100972D
S113045041F120918201309183012115310529F464
S11304609093D3018093D20107C02130310521F448
S11304709093D7018093D6016EE271E080E090E022
S113048073D19093D5018093D4012091820130914E
S113049083012F5F3F4F30938301209382010097A4
S11304A0C1F61092830110928201C091D601D091BD
S11304B0D70144E050E06CE371E0CE0158D1892BC0
S11304C071F4F0928F01E0928E018091D2019091AB
S11304D0D3010CD18EE291E009D1B3DE27C044E010
S11304E050E061E471E0CE0142D1892B71F41092A5
S11304F08F0110928E018091D2019091D301F6D098
S11305008EE291E0F3D09DDE11C044E050E066E459
S113051071E0CE012CD1892B49F48091D2019091C4
S1130520D301E4D08EE291E0E1D08BDE2DDE60E0F9
S113053071E086E191E00CDF019761F4DEDEE2E236
S1130540F1E0ACE0B1E0819191918D939D93E0173E
S1130550F107C9F717DF892B21F410928B01109250
S11305608A012ADF892B21F410928D0110928C01CB
S113057080918601909187018330910509F445C0EB
S11305803CF48130910511F17CF5892B99F053CF1E
S11305908B30910509F45EC024F40A9709F442C033
S11305A04ACF8C30910509F47DC08436910509F455
S11305B083C041CF80918E0190918F01019709F002
S11305C03ACFF0928701E092860135CFF5DE0197AC
S11305D009F031CF80918601909187010196909323
S11305E087018093860127CF0A9902C0C09A23CF3E
S11305F00A9B21CFC0988091860190918701019632
S1130600909387018093860116CF0B9914CF0C9990
S113061012CF709287016092860110928501109228
S1130620840109CFDBBCCABCF0928901E092880145
S11306308091840190918501803891050CF4FBCE62
S11306408091860190918701019690938701809310
S11306508601F1CE0A9B07C0C09AC29A1092850106
S113066010928401E8CE0A99E6CE8091840190919B
S11306708501803491050CF4DECEC0989BBC8ABC05
S11306801092890110928801F0928D01E0928C0100
S113069080918601909187010196909387018093C0
S11306A08601C9CE0B9BC7CE0B9BC5CEC298B09218
S11306B08701A0928601BFCEF0928B01E0928A015D
S11306C01092870110928601B6CE109290008FECA2
S11306D089B9599AE5E9F0E080818660808388E9E8
S11306E08AB908955D9BFECF8CB90895CF93DF93AB
S11306F0EC018881882329F02196F4DF8991811106
S1130700FCCFDF91CF9108958091910108951092CB
S1130710910182E991E00895CF93DF931F92CDB7C1
S1130720DEB78CB1898389818A3019F089818D3053
S113073061F4E0919001F0E0EE56FE4F10821092C9
S1130740900181E0809391010BC080919001E82F8A
S1130750F0E09981EE56FE4F90838F5F8093900175
S11307600F90DF91CF9108954CE451E00EC0FB014E
S1130770DC014150504030F08D910190801919F402
S11307800020B9F7881B990B0895FA01A191B08153
S1130790009719F41097E1F0CD01DC01CD010D9023
S11307A0002011F4C00113C0FB012191222319F090
S11307B02015D9F7F3CFFB012191201519F41E92CE
S11307C0119606C02223C1F70D900020A1F7D00195
S11307D0FA01A193B08308950F931F93CF93DF93EE
S11307E0CDB7DEB72E970FB6F894DEBF0FBECDBFE0
S11307F00D891E8986E08C831A8309838FEF9FE716
S11308009E838D83AE01475E5F4F6F89788DCE01E5
S1130810019610D0EF81F885E00FF11F10822E961B
S11308200FB6F894DEBF0FBECDBFDF91CF911F91FD
S11308300F9108952F923F924F925F926F927F9201
S11308408F929F92AF92BF92CF92DF92EF92FF92DC
S11308500F931F93CF93DF93CDB7DEB72B970FB6CC
S1130860F894DEBF0FBECDBF6C017B018A01FC0191
S113087017821682838181FFBFC1CE0101963C019C
S1130880F6019381F70193FD859193FF81917F0197
S1130890882309F4ADC1853239F493FD859193FF22
S11308A081917F01853221F4B60190E0D6D1E8CF61
S11308B0912C212C312CFFE1F315D8F08B3279F0F7
S11308C038F4803279F08332A1F4232D20611DC0E5
S11308D08D3261F0803369F4232D216016C0832D9D
S11308E08260382EE32DE4603E2E2AC0F32DF8609A
S11308F01DC037FC2DC020ED280F2A3040F08E3269
S1130900B9F436FC75C1232D2064322E19C036FE8D
S113091006C08AE0989E200D1124922E11C0EAE0B0
S11309202E9E200D1124222EF32DF0623F2E08C09E
S11309308C3621F4832D8068382E02C0883641F429
S1130940F70193FD859193FF81917F018111B3CFCD
S1130950982F9F7D9554933028F40C5F1F4F9FE38D
S113096099830DC0833631F0833771F0833509F0F4
S113097055C020C0F801808189830E5F1F4F8824F1
S11309808394912C530112C02801F2E04F0E511CA4
S1130990F801A080B18036FE03C0692D70E002C06A
S11309A06FEF7FEFC5014ED14C018201F32DFF772C
S11309B03F2E15C0280122E0420E511CF801A080F0
S11309C0B18036FE03C0692D70E002C06FEF7FEF87
S11309D0C5012DD14C01F32DF0683F2E820133FC6B
S11309E019C0822D90E088169906A0F4B60180E221
S11309F090E033D12A94F5CFF50137FC859137FE89
S1130A0081915F01B60190E028D121102A9421E060
S1130A10821A91088114910479F7E1C0843611F0A7
S1130A20893639F5F80137FE07C06081718182810A
S1130A3093810C5F1F4F08C060817181072E000CE9
S1130A40880B990B0E5F1F4FF32DFF763F2E97FFF8
S1130A5009C090958095709561957F4F8F4F9F4FFA
S1130A60F0683F2E2AE030E0A30133D1882E8618A7
S1130A7044C0853731F4232D2F7EB22E2AE030E096
S1130A8025C0932D997FB92E8F36C1F018F488357F
S1130A9079F0AEC0803719F0883721F0A9C0E92F6A
S1130AA0E061BE2EB4FE0DC0FB2DF460BF2E09C064
S1130AB034FE0AC0292F2660B22E06C028E030E09A
S1130AC005C020E130E002C020E132E0F801B7FEC9
S1130AD007C060817181828193810C5F1F4F06C0C2
S1130AE06081718180E090E00E5F1F4FA301F1D01F
S1130AF0882E8618FB2DFF773F2E36FE0DC0232D42
S1130B002E7FA22E891458F434FE0BC032FC09C087
S1130B10832D8E7EA82E05C0B82CA32C03C0B82C20
S1130B2001C0B92CA4FE0FC0FE01E80DF11D8081A7
S1130B30803321F49A2D997EA92E09C0A2FE06C005
S1130B40B394B39404C08A2D867809F0B394A3FCBB
S1130B5010C0A0FE06C0B21480F4280C922C9B187E
S1130B600DC0B21458F4B60180E290E076D0B3948C
S1130B70F8CFB21418F42B1802C0982C212CA4FE20
S1130B800FC0B60180E390E068D0A2FE16C0A1FCBD
S1130B9003C088E790E002C088E590E0B6010CC08D
S1130BA08A2D867851F0A1FE02C08BE201C080E25A
S1130BB0A7FC8DE2B60190E050D0891430F4B60160
S1130BC080E390E04AD09A94F8CF8A94F301E80D38
S1130BD0F11D8081B60190E040D08110F6CF222033
S1130BE009F44ECEB60180E290E037D02A94F7CFD4
S1130BF0F6018681978102C08FEF9FEF2B960FB687
S1130C00F894DEBF0FBECDBFDF91CF911F910F913E
S1130C10FF90EF90DF90CF90BF90AF909F908F9018
S1130C207F906F905F904F903F902F900895FC01BC
S1130C300590615070400110D8F7809590958E0F03
S1130C409F1F0895FC016150704001900110D8F776
S1130C50809590958E0F9F1F08950F931F93CF93A8
S1130C60DF93FB01238121FD03C08FEF9FEF2CC095
S1130C7022FF16C0468157812481358142175307CC
S1130C8044F4A081B1819D012F5F3F4F31832083C4
S1130C908C93268137812F5F3F4F3783268314C07F
S1130CA08B01EC01FB010084F185E02D0995892B72
S1130CB0E1F6D80116968D919C9117970196179697
S1130CC09C938E931697CE01DF91CF911F910F9134
S1130CD00895FA01AA27283051F1203181F1E894CE
S1130CE06F936E7F6E5F7F4F8F4F9F4FAF4FB1E01B
S1130CF03ED0B4E03CD0670F781F891F9A1FA11D16
S1130D00680F791F8A1F911DA11D6A0F711D811D16
S1130D10911DA11D20D009F468943F912AE0269FDB
S1130D2011243019305D3193DEF6CF010895462F3A
S1130D304770405D4193B3E00FD0C9F7F6CF462F1B
S1130D404F70405D4A3318F0495D31FD4052419384
S1130D5002D0A9F7EACFB4E0A69597958795779541
S1130D606795BA95C9F700976105710508959B01C8
S1130D70AC010A2E06945795479537952795BA9551
S1130D80C9F7620F731F841F951FA01D0895F8945F
S1050D90FFCF8F
S1130D92FFFFFFFFFFFFFFFFFFFFFFFFFFFFFFFF5D
S1130DA2FFFFFFFFFFFFFFFFFFFFFFFFFFFFFFFF4D
S1130DB2FFFFFFFFFFFFFFFFFFFFFFFF25642C0084
S1130DC22564000A0D00652532642C006175746F78
S10F0DD2006D616E7500737461740000A4
S9030000FC
