S01C000046696E616C50726F6A6563745F4156525F4147562E73726563C2
S113000051C100006DC100006BC1000069C1000056
S113001067C1000065C1000063C1000061C1000048
S11300205FC100005DC100005BC1000059C1000058
S113003057C1000055C1000053C1000051C1000068
S11300400C946D0A4DC100004CC1000049C1000070
S113005047C1000045C1000043C1000041C1000088
S11300603FC100003DC100003BC1000039C1000098
S113007037C1000035C1000033C1000031C10000A8
S11300802FC100002DC100002BC10000B504C40421
S1130090D204E604F50443058405AB08AB08AB08B9
S11300A0AB08AB08AB08AB08AB08AB08AB08AB08B4
S11300B0AB08AB08AB08AB08AB08AB08AB08AB08A4
S11300C0AB08AB08AB08AB08AB08AB08AB08AB0894
S11300D0AB08AB08AB08AB08AB08AB08AB08AB0884
S11300E0AB08AB08AB08AB08AB08AB08AB08AB0874
S11300F0AB08AB08AB08AB08AB08AB08AB08AB0864
S1130100AB08AB08AB08AB08AB08AB08AB08AB0853
S1130110AB08AB08AB08AB08AB08AB08AB08AB0843
S1130120AB08AB08AB08AB08AB08AB08AB08AB0833
S1130130AB08AB08AB08AB08AB08AB08AB08AB0823
S1130140AB08AB08AB08AB08AB08AB08AB08AB0813
S1130150AB08AB08DF050306120622063206440686
S1130160540664067406AA06C106DC062A07AB0810
S1130170AB08AB08AB08AB08AB08AB08AB08AB08E3
S1130180AB08AB08AB08AB08AB08AB08AB08AB08D3
S1130190480757077107AB08AB08AB08AB08AB08B7
S11301A0AB08AB08AB08AB08AB08AB08AB08AB08B3
S11301B0AB08AB08AB08AB08AB08AB08AB08AB08A3
S11301C0AB08AB08AB08AB08AB08AB08AB08AB0893
S11301D0AB08AB08AB08AB08AB08AB08AB08AB0883
S11301E0AB08AB08AB08AB08AB08AB08AB08AB0873
S11301F0AB08AB08AB08AB08AB08AB08AB08AB0863
S1130200AB08AB08AB08AB08AB08AB08AB08AB0852
S1130210AB08AB08AB08AB08AB08AB088107900789
S1130220A007AE07BE07CC07DC07EC07AB08AB089A
S113023003081208AB08AB08AB08AB08AB08AB0863
S1130240AB08AB0822083D088B083005390530059A
S11302503905390539051A052705390539053005E4
S1130260270527050F05030517072007170720078C
S11302702007200701070E072007200717070E078E
S11302800E07F606EA0678088108780881088108CE
S1130290810862086F088108810878086F086F0870
S11302A057084B0811241FBECFEFD0E1DEBFCDBFEE
S11302B011E0A0E0B1E0ECE7FCE100E00BBF02C01C
S11302C007900D92AA36B107D9F722E0AAE6B1E069
S11302D001C01D92A034B207E1F782D20C943C0E07
S11302E08FCE1F920F920FB60F9211240BB60F925E
S11302F02F933F934F935F936F937F938F939F932A
S1130300AF93BF93EF93FF930E94C00AFF91EF91C5
S1130310BF91AF919F918F917F916F915F914F9119
S11303203F912F910F900BBE0F900FBE0F901F9017
S113033018958FB582608FBD8EB588618EBD8FB5DF
S1130340806A8FBD8EB582608EBD8FE39CE997BDB8
S113035086BD089586B1876086B93E9A379A089516
S113036087B3806687BB85B385BB84B38FEF84BBBB
S113037082B382BB81B381BB83B183B982B182B9B9
S1130380E5E6F0E080818083E4E6F0E0808183604C
S11303908083089588EE93E09BBD8ABD8CE494E04D
S11303A099BD88BD0895CF93DF9300D000D0CDB719
S11303B0DEB721E030E03A83298329813A81281786
S11303C03907FCF441E050E05C834B832B813C8192
S11303D0283532405CF42B813C812F5F3F4F3C83B6
S11303E02B832B813C8128353240ACF329813A811F
S11303F02F5F3F4F3A83298329813A812817390790
S11304001CF30F900F900F900F90DF91CF910895F0
S1130410019711F4A89A0895A8980895019711F4E2
S1130420A99A0895A9980895019711F4AA9A08958C
S1130430AA980895019711F4AB9A0895AB9808957A
S1130440019739F481E090E0E3DF80E090E0E6CFCB
S1130450089580E090E0DCDF81E090E0DFCF089554
S1130460019739F481E090E0DFDF80E090E0E2CFB3
S1130470089580E090E0D8DF81E090E0DBCF08953C
S113048080E090E0D1DF80E090E0D4DF80E090E095
S1130490BFDF80E090E0C2CF08956F927F928F9289
S11304A09F92AF92BF92CF92DF92EF92FF920F93FF
S11304B01F93CF93DF93EAEDF1E08091890190914E
S11304C08A01918380838091830190918401938335
S11304D082838091810190918201958384838091AC
S11304E07F01909180019783868380917B01909115
S11304F07C019187808780917D0190917E01938713
S11305008287A3EDB1E0E6EEF1E020EF31E08D91DA
S113051090E081939193E217F307C9F7CAEDD1E014
S113052066246394712C0BE311E00F2EF5E3AF2ED8
S1130530F1E0BF2EF02D0F2EF1E3CF2EF1E0DF2EF0
S1130540F02D7E010F2EFBE28F2EF1E09F2EF02D79
S113055004C08FEF681A780A2296E1E06E167104DF
S1130560B9F4F70181818F9380818F939F928F9249
S113057081EF91E09F938F930E94610B81EF91E053
S1130580F1D70F900F900F900F900F900F90E1CF35
S1130590C3010297059798F489818F9388818F937B
S11305A0DF92CF9281EF91E09F938F930E94610B32
S11305B00F900F900F900F900F900F9029C0C301D0
S11305C00797049798F489818F9388818F93BF92BA
S11305D0AF9281EF91E09F938F930E94610B0F90F4
S11305E00F900F900F900F900F9012C089818F93EE
S11305F088818F931F930F9381EF91E09F938F9343
S11306000E94610B0F900F900F900F900F900F901E
S113061081EF91E0A7D7FBE06F1671040CF499CF3A
S113062087E691E09FD7DF91CF911F910F91FF90C3
S1130630EF90DF90CF90BF90AF909F908F907F907E
S11306406F90089580917001909171019F938F93A1
S113065080E491E09F938F9381EF91E09F938F9338
S11306600E94610B81EF91E07DD717DF80917001CB
S11306709091710101969093710180937001809122
S11306807001909171010F900F900F900F900F9047
S11306900F908436910524F010927101109270012C
S11306A0089597B1907F97B997B1892B87B9369AF6
S11306B03699FECF84B195B10895CF93DF9368E264
S11306C072E082E597D680932302813029F5C8E24F
S11306D0D2E028E332E0FE0180E28193E217F307DF
S11306E0E1F788E292E0B8D680932302E3EDF1E0EB
S11306F02DE232E089918193C217D307D9F7809113
S11307008D0190918E018F3F910531F02CF0109264
S11307108E0110928D0196DFDF91CF910895CF92D3
S1130720DF92EF92FF920F931F93CF93DF938C018D
S1130730141615060CF040C0FB0180816801D80135
S1130740A40FB51FE12CF12CEB01C40FD51F15C06C
S11307509191921304C0FFEFEF1AFF0A03C0CE1762
S1130760DF07B1F7CA16DB0641F4F8018081EB011B
S1130770640F751FC12CD12C15C0F60121916F0196
S1130780281749F3FB013196EACF9191921304C0E3
S1130790FFEFCF1ADF0A03C0EA17FB07B1F7C6174A
S11307A0D70731F02991281799F3F8013196F4CF3E
S11307B0EC14FD0451F402C0E12CF12C81E090E032
S11307C04E155F0521F080E002C080E090E0DF91EB
S11307D0CF911F910F91FF90EF90DF90CF900895EC
S11307E0EAE3F2E08EE091E09383828380E091E09B
S11307F091838083A2D69AD665D6C9D4B1DD99DD1A
S1130800A9DD7894C1E0D0E002E010E00F2EF8EC0E
S1130810AF2EB12CF02D0F2EF2E6EF2EF12CF02D91
S11308200F2EF8EECF2EF3E0DF2EF02D0F2EFDEC81
S11308302F2E312CF02D0F2EFBEC4F2E512CF02DA2
S11308400F2EF8EB8F2EFBE09F2EF02D0F2EFFE6E0
S11308506F2E712CF02DBCD6882309F47AC0BBD638
S113086063E371E0C6D69093270280932602009733
S113087041F120917201309173012115310529F460
S11308809093D9018093D80107C02130310521F418
S1130890909339028093380263E371E080E090E042
S11308A0A8D690932702809326022091720130915A
S11308B073012F5F3F4F30937301209372010097B0
S11308C0C1F6109273011092720145E050E067E4A2
S11308D071E080913802909139028ED6892B69F4A7
S11308E08091D8019091D9013DD683E391E03AD625
S11308F0D4DDD0938801C093870145E050E06CE4D7
S113090071E0809138029091390276D6892B69F48E
S11309108091D8019091D90125D683E391E022D624
S1130920BCDDD0938601C093850145E050E061E5CC
S113093071E080913802909139025ED6892B49F496
S11309408091D8019091D9010DD683E391E00AD624
S1130950A4DDB3DEE0918901F0918A01EF3DF10558
S113096008F0F9C3EA5BFF4F3BC614DD1092900117
S113097010928F018091890190918A010196909340
S11309808A018093890167CF80918F0190919001B2
S11309908F3F910509F00CF45ECF10938A01009308
S11309A0890159CF8091870190918801019739F08D
S11309B08091850190918601019709F04CCF83E0E5
S11309C090E090938A018093890145CFD09384016C
S11309D0C093830137DE8091890190918A01019649
S11309E090938A018093890136CF89B38F70809365
S11309F0F00190E0FC013197EF30F10508F039C0C7
S1130A00EB5DFE4FEDC580E090E01ADDCE0128DD00
S1130A1084E690E0C8DC34DDCE01C5DC2AC0CE011A
S1130A200FDDCE011DDD84E690E0BDDC29DDCE01C5
S1130A30BADC1FC080E090E003DD80E090E010DDD0
S1130A4084E690E0B0DC1CDDCE01ADDC12C0CE014A
S1130A5007DD84E690E0A7DC13DDCE01A4DC09C049
S1130A6080E090E0EDDC84E690E09DDC09DDCE01E1
S1130A709ADC8091890190918A01019690938A0170
S1130A8080938901E8CE8091870190918801019734
S1130A9061F445E050E066E271E083ED91E03FDE11
S1130AA090937A018093790111C08091850190918E
S1130AB08601019759F445E050E061E271E083ED6D
S1130AC091E02DDE90937A018093790180917901F0
S1130AD090917A01019789F410927A011092790128
S1130AE0CFDCCE0160DC8091890190918A0101966E
S1130AF090938A0180938901AECE84E090E0909334
S1130B008A0180938901A7CE809187019091880101
S1130B10019741F580912402909125028F3F910520
S1130B20B9F0B4F0109225021092240210928801B8
S1130B30109287011092840110928301D0937E0158
S1130B40C0937D0184E690E090938A0180938901AB
S1130B50809124029091250201969093250280931E
S1130B60240279CE8091850190918601019709F044
S1130B7072CE80912402909125028F3F9105A9F0B5
S1130B80A4F0109225021092240210928601109271
S1130B908501109284011092830110937E010093C9
S1130BA07D01B0928A01A0928901809124029091E2
S1130BB02502019690932502809324024CCE80E076
S1130BC070DD80936C0190936D019F938F9386E504
S1130BD091E09F938F9381EF91E09F938F9371D5D1
S1130BE081EF91E0BFD48091890190918A010196AF
S1130BF090938A01809389010F900F900F900F902A
S1130C000F900F9028CED0938201C09381011ADDFA
S1130C108091890190918A01019690938A01809331
S1130C20890119CE9BBC8ABC1092900110928F014D
S1130C308091890190918A01019690938A01809311
S1130C40890109CE80918F01909190018F3F910588
S1130C5009F00CF400CE88E690E090938A0180932A
S1130C608901F9CD88E893E199BD88BD109290017E
S1130C7010928F018091890190918A01019690933D
S1130C808A0180938901E7CD80918F019091900131
S1130C908F3F910509F00CF4DECD8AE690E0909345
S1130CA08A0180938901D7CDDBBCCABC1092900124
S1130CB010928F018091890190918A0101969093FD
S1130CC08A0180938901C7CD80918F019091900111
S1130CD08F3F910509F00CF4BECD8CE690E0909323
S1130CE08A0180938901B7CD80E0DBDC80936E01BB
S1130CF090936F019F938F9386E591E09F938F93D9
S1130D0081EF91E09F938F93DCD481EF91E02AD41B
S1130D1080916C0190916D0120916E0130916F0171
S1130D20821B930B0F900F900F900F900F900F90CA
S1130D30C29724F081E0F701808302C0F70110829A
S1130D408091890190918A01019690938A01809300
S1130D50890181CDF7018081811107C082E890E08B
S1130D6090938A018093890176CDF7018081813047
S1130D7009F071CD8EE690E090938A018093890109
S1130D806ACDD0937C01C0937B01109282011092B2
S1130D908101D0938401C093830110927E0110924B
S1130DA07D0150DC8091890190918A010196909394
S1130DB08A01809389014FCD89B38F708093F001AC
S1130DC090E0FC013197EF30F10508F039C0EC5C9C
S1130DD0FE4F06C480E090E033DBCE0141DB84E6C5
S1130DE090E0E1DA4DDBCE01DEDA2AC0CE0128DB69
S1130DF0CE0136DB84E690E0D6DA42DBCE01D3DAEC
S1130E001FC080E090E01CDB80E090E029DB84E6FA
S1130E1090E0C9DA35DBCE01C6DA12C0CE0120DBA0
S1130E2084E690E0C0DA2CDBCE01BDDA09C080E0B4
S1130E3090E006DB84E690E0B6DA22DBCE01B3DA9A
S1130E408091890190918A01019690938A018093FF
S1130E50890101CD45E050E06CE171E083ED91E062
S1130E605EDC90937A0180937901019761F410928A
S1130E707A011092790104DBCE0195DA10938A018C
S1130E8000938901E8CC70928A0160928901E3CCD5
S1130E9010937C0100937B01D5DB809189019091B3
S1130EA08A01019690938A0180938901D4CC809120
S1130EB0870190918801019709F0CDCC10928801A7
S1130EC01092870167DA1092900110928F0180913D
S1130ED0890190918A01019690938A0180938901F6
S1130EE0BACC80918F01909190018F3F910509F0C8
S1130EF00CF4B1CC84E690E090938A01809389014C
S1130F00AACC10938201009381019CDB809189011A
S1130F1090918A01019690938A01809389019BCCD8
S1130F209BBC8ABC1092900110928F018091890120
S1130F3090918A01019690938A01809389018BCCC8
S1130F4080918F01909190018F3F910509F00CF4ED
S1130F5082CC50928A01409289017DCCD9BCC8BC14
S1130F601092900110928F018091890190918A01D1
S1130F70019690938A01809389016DCC80918F01B1
S1130F80909190018F3F910509F00CF464CC30925C
S1130F908A01209289015FCCDBBCCABC109290010B
S1130FA010928F018091890190918A01019690930A
S1130FB08A01809389014FCC80918F019091900197
S1130FC08F3F910509F00CF446CC8FEC90E09093A0
S1130FD08A01809389013FCCF7018081811107C088
S1130FE08CED90E090938A018093890134CCF701D1
S1130FF08081813009F02FCC82ED90E090938A01BA
S11310008093890128CC10937C0100937B011ADB27
S11310108091890190918A01019690938A0180932D
S1131020890119CC8091850190918601019709F07D
S113103012CC1092860110928501B0928A01A0927E
S1131040890109CCD0937C01C0937B011092820169
S113105010928101D0938401C093830110927E0188
S113106010927D01EFDA8091890190918A010196B5
S113107090938A0180938901EECB89B38F7080931A
S1131080F00190E0FC013197EF30F10508F039C030
S1131090ED5BFE4FA5C280E090E0D2D9CE01E0D94D
S11310A084E690E080D9ECD9CE017DD92AC0CE0166
S11310B0C7D9CE01D5D984E690E075D9E1D9CE015E
S11310C072D91FC080E090E0BBD980E090E0C8D91D
S11310D084E690E068D9D4D9CE0165D912C0CE0196
S11310E0BFD984E690E05FD9CBD9CE015CD909C0E1
S11310F080E090E0A5D984E690E055D9C1D9CE012D
S113110052D98091890190918A01019690938A0124
S113111080938901A0CB45E050E064E771E083ED62
S113112091E0FDDA90937A0180937901019761F45B
S113113010927A0110927901A3D9CE0134D9109377
S11311408A010093890187CBEDEDF0E0F0938A01E9
S1131150E093890180CB8BE591E083D27CCBCF9364
S1131160C62FC098880F8E77B3D18C2FB1D1C09A77
S1131170CF910895C098880F8E778068A9D180E0B8
S1131180A7D1C09A08956FE081E0E9CF0895FBDF0D
S11311906DE88AE2E4DF6EE38BE2E1DF6EE18CE28C
S11311A0DEDF60E08DE2DBDF60E485E1D8DF6DE364
S11311B081E1D5DF84E1DEDF982F937021F4682F7D
S11311C0636084E1CCCF08953F924F925F926F9217
S11311D07F928F929F92AF92BF92CF92DF92EF92C3
S11311E0FF920F931F93CF93DF93982EF62EE72E43
S11311F0442E822E332E58018CE0981609F4BAC07E
S1131200EEE09E1203C010E102E102C010E000E033
S113121084E0B0DF682F6F7784E0A1DF8AE0AADF83
S1131220682F60688AE09BDF60E081E098DF512CE2
S1131230612C712C411451046104710419F414C01B
S113124010E307E7CF2DDE2DC12CD12C7601699157
S113125089E085DFFFEFCF1ADF0AEF0AFF0AC41423
S1131260D504E604F70498F3692D81E078DF8CE077
S1131270981206C08DE07EDF682F60688DE06FDF16
S113128084E078DFF82EC0E0D0E0116009C084E08B
S113129071DFF82E2196CF3CE7E0DE0709F483C026
S11312A0812F8F21A1F387C00170F02211F0C2E0D9
S11312B001C0C1E0FCE09F128AC08AE05BDF482ED7
S11312C08CE058DF282F2770A9F0842D90E0019737
S11312D0880F991F880F991F880F991F820F911DDE
S11312E0092E000CAA0BBB0BF50180839183A2830A
S11312F0B38311C0842D90E0880F991F880F991F24
S1131300880F991F092E000CAA0BBB0BF5018083D3
S11313109183A283B383442071F0842D813108F03A
S113132080E1482E512C612C712C4114510461042C
S1131330710429F44CC0412C512C32014394082DE2
S1131340132DC12CD12C760189E014DFF80181938F
S11313508F01FFEFCF1ADF0AEF0AFF0AC414D50486
S1131360E604F70488F333C06CE081E0F8DE10E3B0
S113137007E780CF84E0FEDE682F6F7784E0EFDE3E
S11313808AE0F8DE682F60688AE0E9DE60E081E0E8
S1131390E6DE512C612C712C41145104610471045A
S11313A009F04ECFE1CF8DE0E5DE682F6F778DE059
S11313B0D6DEC3E00CC08DE0DDDE682F6F778DE0F4
S11313C0CEDE86E0D7DE8B7109F46ECFC3E08C2FBE
S11313D0DF91CF911F910F91FF90EF90DF90CF900D
S11313E0BF90AF909F908F907F906F905F904F9041
S11313F03F900895EF92FF920F931F93CF93DF9343
S113140000D000D0CDB7DEB7182F7B0167E08DE0A8
S1131410A6DEF70110838E010F5F1F4F970141E095
S1131420B7018CE0D1DE813059F449815A816B8156
S11314307C81403151056105710519F083E001C0DB
S113144083E00F900F900F900F90DF91CF911F9139
S11314500F91FF90EF900895EF92FF920F931F93D7
S1131460CF93DF9300D000D0CDB7DEB77C0160E02E
S11314708DE075DE83E9F701808380E281838E014C
S11314800F5F1F4F970142E0B7018CE09DDE813072
S113149071F4F701A7014C5F5F4F90E0219192270F
S11314A04E175F07D9F7F7012481921383E00F9059
S11314B00F900F900F90DF91CF911F910F91FF909C
S11314C0EF90089587E087BBBB9881E58DB90895B7
S11314D08FB9779BFECF8FB108951F920F920FB6ED
S11314E00F9211248F939F9380918F01909190017B
S11314F001969093900180938F0180918D0190913A
S11315008E01019690938E0180938D0180918B01C1
S113151090918C01019690938C0180938B019F9103
S11315208F910F900FBE0F901F90189583B787600F
S113153083BF87B7816087BF0895109290008FECB6
S113154089B9599AE5E9F0E080818660808388E969
S11315508AB908955D9BFECF8CB908955F9BFECF39
S11315608CB10895CF93DF93EC018881882329F00F
S11315702196F0DF89918111FCCFDF91CF910895FD
S1131580CF93DF931F92CDB7DEB78CB18983898166
S11315908A3019F089818D3061F4E0919101F0E095
S11315A0ED56FE4F10821092910181E080939201DA
S11315B00BC080919101E82FF0E09981ED56FE4F28
S11315C090838F5F809391010F90DF91CF91089565
S11315D08091920108951092920183E991E0089517
S11315E0EE0FFF1F0024001C0BBE0790F691E02DA8
S11315F009944AE651E00EC0FB01DC014150504021
S113160030F08D910190801919F40020B9F7881BEE
S1131610990B0895FA01A191B081009719F41097DC
S1131620E1F0CD01DC01CD010D90002011F4C001E9
S113163013C0FB012191222319F02015D9F7F3CF10
S1131640FB012191201519F41E92119606C0222344
S1131650C1F70D900020A1F7D001FA01A193B08346
S113166008950F931F93CF93DF93E0913C02F09181
S11316703D02238121FF1BC08C01D0E0C0E0F801B2
S113168081918F0160913C0270913D02DB011896BB
S1131690ED91FC911997882331F00995892B79F301
S11316A0DFEFCFEFECCF8AE00995892B19F08FEFAC
S11316B09FEF02C08D2F9C2FDF91CF911F910F912F
S11316C008950F931F93CF93DF93CDB7DEB72E9773
S11316D00FB6F894DEBF0FBECDBF0D891E8986E01C
S11316E08C831A8309838FEF9FE79E838D83AE01DA
S11316F0475E5F4F6F89788DCE01019610D0EF81E0
S1131700F885E00FF11F10822E960FB6F894DEBF15
S11317100FBECDBFDF91CF911F910F9108952F92EE
S11317203F924F925F926F927F928F929F92AF926D
S1131730BF92CF92DF92EF92FF920F931F93CF93BA
S1131740DF93CDB7DEB72B970FB6F894DEBF0FBE8D
S1131750CDBF6C017B018A01FC0117821682838153
S113176081FFBFC1CE0101963C01F6019381F701CF
S113177093FD859193FF81917F01882309F4ADC185
S1131780853239F493FD859193FF81917F018532F0
S113179021F4B60190E0D6D1E8CF912C212C312C44
S11317A0FFE1F315D8F08B3279F038F4803279F018
S11317B08332A1F4232D20611DC08D3261F080336A
S11317C069F4232D216016C0832D8260382EE32D09
S11317D0E4603E2E2AC0F32DF8601DC037FC2DC0F6
S11317E020ED280F2A3040F08E32B9F436FC75C152
S11317F0232D2064322E19C036FE06C08AE0989E3E
S1131800200D1124922E11C0EAE02E9E200D1124E9
S1131810222EF32DF0623F2E08C08C3621F4832D46
S11318208068382E02C0883641F4F70193FD859113
S113183093FF81917F018111B3CF982F9F7D9554A0
S1131840933028F40C5F1F4F9FE399830DC08336B8
S113185031F0833771F0833509F055C020C0F801A9
S1131860808189830E5F1F4F88248394912C5301B8
S113187012C02801F2E04F0E511CF801A080B18083
S113188036FE03C0692D70E002C06FEF7FEFC50123
S11318904ED14C018201F32DFF773F2E15C0280154
S11318A022E0420E511CF801A080B18036FE03C034
S11318B0692D70E002C06FEF7FEFC5012DD14C019F
S11318C0F32DF0683F2E820133FC19C0822D90E085
S11318D088169906A0F4B60180E290E033D12A94E8
S11318E0F5CFF50137FC859137FE81915F01B60193
S11318F090E028D121102A9421E0821A91088114C1
S1131900910479F7E1C0843611F0893639F5F8018C
S113191037FE07C060817181828193810C5F1F4F04
S113192008C060817181072E000C880B990B0E5F33
S11319301F4FF32DFF763F2E97FF09C0909580959A
S1131940709561957F4F8F4F9F4FF0683F2E2AE02F
S113195030E0A30133D1882E861844C0853731F492
S1131960232D2F7EB22E2AE030E025C0932D997FBF
S1131970B92E8F36C1F018F4883579F0AEC08037AF
S113198019F0883721F0A9C0E92FE061BE2EB4FE1A
S11319900DC0FB2DF460BF2E09C034FE0AC0292FF0
S11319A02660B22E06C028E030E005C020E130E019
S11319B002C020E132E0F801B7FE07C06081718106
S11319C0828193810C5F1F4F06C06081718180E02A
S11319D090E00E5F1F4FA301F1D0882E8618FB2DD7
S11319E0FF773F2E36FE0DC0232D2E7FA22E8914A5
S11319F058F434FE0BC032FC09C0832D8E7EA82E11
S1131A0005C0B82CA32C03C0B82C01C0B92CA4FE6B
S1131A100FC0FE01E80DF11D8081803321F49A2D61
S1131A20997EA92E09C0A2FE06C0B394B39404C043
S1131A308A2D867809F0B394A3FC10C0A0FE06C0DA
S1131A40B21480F4280C922C9B180DC0B21458F4D4
S1131A50B60180E290E076D0B394F8CFB21418F4D3
S1131A602B1802C0982C212CA4FE0FC0B60180E3D1
S1131A7090E068D0A2FE16C0A1FC03C088E790E005
S1131A8002C088E590E0B6010CC08A2D867851F03A
S1131A90A1FE02C08BE201C080E2A7FC8DE2B60188
S1131AA090E050D0891430F4B60180E390E04AD03D
S1131AB09A94F8CF8A94F301E80DF11D8081B60160
S1131AC090E040D08110F6CF222009F44ECEB6012A
S1131AD080E290E037D02A94F7CFF601868197818F
S1131AE002C08FEF9FEF2B960FB6F894DEBF0FBEA8
S1131AF0CDBFDF91CF911F910F91FF90EF90DF90B9
S1131B00CF90BF90AF909F908F907F906F905F9099
S1131B104F903F902F900895FC01059061507040C4
S1131B200110D8F7809590958E0F9F1F0895FC01A2
S1131B306150704001900110D8F7809590958E0FF8
S1131B409F1F08950F931F93CF93DF93FB0123816E
S1131B5021FD03C08FEF9FEF2CC022FF16C04681EA
S1131B605781248135814217530744F4A081B18100
S1131B709D012F5F3F4F318320838C9326813781D2
S1131B802F5F3F4F3783268314C08B01EC01FB0189
S1131B900084F185E02D0995892BE1F6D80116968C
S1131BA08D919C911797019617969C938E931697F7
S1131BB0CE01DF91CF911F910F910895FA01AA27C9
S1131BC0283051F1203181F1E8946F936E7F6E5F7C
S1131BD07F4F8F4F9F4FAF4FB1E03ED0B4E03CD02A
S1131BE0670F781F891F9A1FA11D680F791F8A1F0D
S1131BF0911DA11D6A0F711D811D911DA11D20D074
S1131C0009F468943F912AE0269F11243019305D2D
S1131C103193DEF6CF010895462F4770405D41931E
S1131C20B3E00FD0C9F7F6CF462F4F70405D4A336B
S1131C3018F0495D31FD4052419302D0A9F7EACF33
S1131C40B4E0A6959795879577956795BA95C9F762
S1131C5000976105710508959B01AC010A2E069455
S1131C605795479537952795BA95C9F7620F731F0E
S10F1C70841F951FA01D0895F894FFCF59
S1131C7C00000001000000000000AE0A000000009B
S1131C8C000200000000AA0A000000007309596455
S1131C9C4787E06E636A949C1E1E08253033642CBF
S1131CAC0025642C00253032782C00253032780045
S1131CBC65253032642C007069636B0064726F703C
S1131CCC00737461740025640D0A006361736520EC
S10D1CDC64656661756C740D000008
S9030000FC
